{
    "_format": "hh-sol-artifact-1",
    "contractName": "Blockfunding",
    "sourceName": "contracts/Contract.sol",
    "abi": [
        {
            "inputs": [
                {
                    "internalType": "uint256",
                    "name": "_campaignId",
                    "type": "uint256"
                },
                {
                    "internalType": "uint256",
                    "name": "_amountRequired",
                    "type": "uint256"
                },
                {
                    "internalType": "string",
                    "name": "_reward",
                    "type": "string"
                }
            ],
            "name": "addTier",
            "outputs": [],
            "stateMutability": "nonpayable",
            "type": "function"
        },
        {
            "inputs": [
                {
                    "internalType": "uint256",
                    "name": "",
                    "type": "uint256"
                }
            ],
            "name": "campaigns",
            "outputs": [
                {
                    "internalType": "address",
                    "name": "owner",
                    "type": "address"
                },
                {
                    "internalType": "string",
                    "name": "title",
                    "type": "string"
                },
                {
                    "internalType": "string",
                    "name": "description",
                    "type": "string"
                },
                {
                    "internalType": "uint256",
                    "name": "target",
                    "type": "uint256"
                },
                {
                    "internalType": "uint256",
                    "name": "deadline",
                    "type": "uint256"
                },
                {
                    "internalType": "uint256",
                    "name": "amountCollected",
                    "type": "uint256"
                },
                {
                    "internalType": "string",
                    "name": "videoURL",
                    "type": "string"
                },
                {
                    "internalType": "string",
                    "name": "category",
                    "type": "string"
                },
                {
                    "internalType": "string",
                    "name": "subCategory",
                    "type": "string"
                },
                {
                    "internalType": "string",
                    "name": "workProof",
                    "type": "string"
                }
            ],
            "stateMutability": "view",
            "type": "function"
        },
        {
            "inputs": [
                {
                    "internalType": "address",
                    "name": "_owner",
                    "type": "address"
                },
                {
                    "internalType": "string",
                    "name": "_title",
                    "type": "string"
                },
                {
                    "internalType": "string",
                    "name": "_description",
                    "type": "string"
                },
                {
                    "internalType": "uint256",
                    "name": "_target",
                    "type": "uint256"
                },
                {
                    "internalType": "uint256",
                    "name": "_deadline",
                    "type": "uint256"
                },
                {
                    "internalType": "string[]",
                    "name": "_mediaFiles",
                    "type": "string[]"
                },
                {
                    "internalType": "string",
                    "name": "_videoURL",
                    "type": "string"
                },
                {
                    "internalType": "string",
                    "name": "_category",
                    "type": "string"
                },
                {
                    "internalType": "string",
                    "name": "_subCategory",
                    "type": "string"
                },
                {
                    "internalType": "string",
                    "name": "_workProof",
                    "type": "string"
                }
            ],
            "name": "createCampaign",
            "outputs": [
                {
                    "internalType": "uint256",
                    "name": "",
                    "type": "uint256"
                }
            ],
            "stateMutability": "nonpayable",
            "type": "function"
        },
        {
            "inputs": [
                {
                    "internalType": "uint256",
                    "name": "_campaignId",
                    "type": "uint256"
                },
                {
                    "internalType": "uint256",
                    "name": "_tierIndex",
                    "type": "uint256"
                }
            ],
            "name": "deleteTier",
            "outputs": [],
            "stateMutability": "nonpayable",
            "type": "function"
        },
        {
            "inputs": [
                {
                    "internalType": "uint256",
                    "name": "_id",
                    "type": "uint256"
                },
                {
                    "internalType": "uint256",
                    "name": "_tierIndex",
                    "type": "uint256"
                }
            ],
            "name": "donateToCampaign",
            "outputs": [],
            "stateMutability": "payable",
            "type": "function"
        },
        {
            "inputs": [],
            "name": "getCampaigns",
            "outputs": [
                {
                    "components": [
                        {
                            "internalType": "address",
                            "name": "owner",
                            "type": "address"
                        },
                        {
                            "internalType": "string",
                            "name": "title",
                            "type": "string"
                        },
                        {
                            "internalType": "string",
                            "name": "description",
                            "type": "string"
                        },
                        {
                            "internalType": "uint256",
                            "name": "target",
                            "type": "uint256"
                        },
                        {
                            "internalType": "uint256",
                            "name": "deadline",
                            "type": "uint256"
                        },
                        {
                            "internalType": "uint256",
                            "name": "amountCollected",
                            "type": "uint256"
                        },
                        {
                            "internalType": "string[]",
                            "name": "mediaFiles",
                            "type": "string[]"
                        },
                        {
                            "internalType": "string",
                            "name": "videoURL",
                            "type": "string"
                        },
                        {
                            "internalType": "string",
                            "name": "category",
                            "type": "string"
                        },
                        {
                            "internalType": "string",
                            "name": "subCategory",
                            "type": "string"
                        },
                        {
                            "internalType": "address[]",
                            "name": "donators",
                            "type": "address[]"
                        },
                        {
                            "internalType": "uint256[]",
                            "name": "donations",
                            "type": "uint256[]"
                        },
                        {
                            "internalType": "string",
                            "name": "workProof",
                            "type": "string"
                        },
                        {
                            "components": [
                                {
                                    "internalType": "uint256",
                                    "name": "amountRequired",
                                    "type": "uint256"
                                },
                                {
                                    "internalType": "string",
                                    "name": "reward",
                                    "type": "string"
                                },
                                {
                                    "internalType": "uint256",
                                    "name": "donationCount",
                                    "type": "uint256"
                                }
                            ],
                            "internalType": "struct Blockfunding.Tier[]",
                            "name": "tiers",
                            "type": "tuple[]"
                        }
                    ],
                    "internalType": "struct Blockfunding.Campaign[]",
                    "name": "",
                    "type": "tuple[]"
                }
            ],
            "stateMutability": "view",
            "type": "function"
        },
        {
            "inputs": [
                {
                    "internalType": "uint256",
                    "name": "_campaignId",
                    "type": "uint256"
                },
                {
                    "internalType": "uint256",
                    "name": "_tierIndex",
                    "type": "uint256"
                }
            ],
            "name": "getDonationCountForTier",
            "outputs": [
                {
                    "internalType": "uint256",
                    "name": "",
                    "type": "uint256"
                }
            ],
            "stateMutability": "view",
            "type": "function"
        },
        {
            "inputs": [
                {
                    "internalType": "uint256",
                    "name": "_id",
                    "type": "uint256"
                }
            ],
            "name": "getDonators",
            "outputs": [
                {
                    "internalType": "address[]",
                    "name": "",
                    "type": "address[]"
                },
                {
                    "internalType": "uint256[]",
                    "name": "",
                    "type": "uint256[]"
                }
            ],
            "stateMutability": "view",
            "type": "function"
        },
        {
            "inputs": [
                {
                    "internalType": "uint256",
                    "name": "_campaignId",
                    "type": "uint256"
                }
            ],
            "name": "getTiers",
            "outputs": [
                {
                    "components": [
                        {
                            "internalType": "uint256",
                            "name": "amountRequired",
                            "type": "uint256"
                        },
                        {
                            "internalType": "string",
                            "name": "reward",
                            "type": "string"
                        },
                        {
                            "internalType": "uint256",
                            "name": "donationCount",
                            "type": "uint256"
                        }
                    ],
                    "internalType": "struct Blockfunding.Tier[]",
                    "name": "",
                    "type": "tuple[]"
                }
            ],
            "stateMutability": "view",
            "type": "function"
        },
        {
            "inputs": [],
            "name": "numberOfCampaigns",
            "outputs": [
                {
                    "internalType": "uint256",
                    "name": "",
                    "type": "uint256"
                }
            ],
            "stateMutability": "view",
            "type": "function"
        }
    ],
    "bytecode": "0x6080604052600060015534801561001557600080fd5b50611fd0806100256000396000f3fe6080604052600436106100915760003560e01c8063995840e311610059578063995840e314610158578063a6b0363314610178578063a9220ec11461019a578063b5ca01f8146101c7578063ba5cdbf3146101e757600080fd5b806307ca140d146100965780630fa91fa9146100bf578063141961bc146100ed5780632b7216e5146101235780635f13a0af14610138575b600080fd5b3480156100a257600080fd5b506100ac60015481565b6040519081526020015b60405180910390f35b3480156100cb57600080fd5b506100df6100da366004611567565b610207565b6040516100b6929190611580565b3480156100f957600080fd5b5061010d610108366004611567565b6102d6565b6040516100b69a9998979695949392919061164a565b6101366101313660046116f8565b61065d565b005b34801561014457600080fd5b506100ac6101533660046116f8565b610839565b34801561016457600080fd5b506101366101733660046117d1565b610877565b34801561018457600080fd5b5061018d610952565b6040516100b69190611950565b3480156101a657600080fd5b506101ba6101b5366004611567565b6110ab565b6040516100b69190611aeb565b3480156101d357600080fd5b506100ac6101e2366004611bc0565b6111bd565b3480156101f357600080fd5b506101366102023660046116f8565b6112fe565b60008181526020818152604091829020600a8101805484518185028101850190955280855260609485949293600b01929091849183018282801561027457602002820191906000526020600020905b81546001600160a01b03168152600190910190602001808311610256575b50505050509150808054806020026020016040519081016040528092919081815260200182805480156102c657602002820191906000526020600020905b8154815260200190600101908083116102b2575b5050505050905091509150915091565b600060208190529081526040902080546001820180546001600160a01b03909216929161030290611d01565b80601f016020809104026020016040519081016040528092919081815260200182805461032e90611d01565b801561037b5780601f106103505761010080835404028352916020019161037b565b820191906000526020600020905b81548152906001019060200180831161035e57829003601f168201915b50505050509080600201805461039090611d01565b80601f01602080910402602001604051908101604052809291908181526020018280546103bc90611d01565b80156104095780601f106103de57610100808354040283529160200191610409565b820191906000526020600020905b8154815290600101906020018083116103ec57829003601f168201915b50505050509080600301549080600401549080600501549080600701805461043090611d01565b80601f016020809104026020016040519081016040528092919081815260200182805461045c90611d01565b80156104a95780601f1061047e576101008083540402835291602001916104a9565b820191906000526020600020905b81548152906001019060200180831161048c57829003601f168201915b5050505050908060080180546104be90611d01565b80601f01602080910402602001604051908101604052809291908181526020018280546104ea90611d01565b80156105375780601f1061050c57610100808354040283529160200191610537565b820191906000526020600020905b81548152906001019060200180831161051a57829003601f168201915b50505050509080600901805461054c90611d01565b80601f016020809104026020016040519081016040528092919081815260200182805461057890611d01565b80156105c55780601f1061059a576101008083540402835291602001916105c5565b820191906000526020600020905b8154815290600101906020018083116105a857829003601f168201915b50505050509080600c0180546105da90611d01565b80601f016020809104026020016040519081016040528092919081815260200182805461060690611d01565b80156106535780601f1061062857610100808354040283529160200191610653565b820191906000526020600020905b81548152906001019060200180831161063657829003601f168201915b505050505090508a565b6000828152602081905260409020600d8101543491901561078057600d81015483106106c65760405162461bcd60e51b815260206004820152601360248201527224b73b30b634b2103a34b2b91034b73232bc1760691b60448201526064015b60405180910390fd5b600081600d0184815481106106dd576106dd611d35565b9060005260206000209060030201905080600001548310156107675760405162461bcd60e51b815260206004820152603860248201527f446f6e6174696f6e20616d6f756e74206973206c657373207468616e2074686560448201527f2074696572277320726571756972656420616d6f756e742e000000000000000060648201526084016106bd565b60028101805490600061077983611d61565b9190505550505b600a81018054600180820183556000928352602080842090920180546001600160a01b03191633179055600b84018054918201815583529082200183905581546040516001600160a01b039091169084908381818185875af1925050503d8060008114610809576040519150601f19603f3d011682016040523d82523d6000602084013e61080e565b606091505b505090508015610832578282600501600082825461082c9190611d7a565b90915550505b5050505050565b6000828152602081905260408120600d0180548390811061085c5761085c611d35565b90600052602060002090600302016002015490505b92915050565b600083815260208190526040902080546001600160a01b031633146108ef5760405162461bcd60e51b815260206004820152602860248201527f4f6e6c79207468652063616d706169676e2063726561746f722063616e20616460448201526732103a34b2b9399760c11b60648201526084016106bd565b6040805160608101825284815260208082018581526000938301849052600d850180546001818101835591865292909420835160039093020191825551919283929082019061093e9082611dde565b506040820151816002015550505050505050565b6060600060015467ffffffffffffffff8111156109715761097161171a565b604051908082528060200260200182016040528015610a1d57816020015b610a0a604051806101c0016040528060006001600160a01b03168152602001606081526020016060815260200160008152602001600081526020016000815260200160608152602001606081526020016060815260200160608152602001606081526020016060815260200160608152602001606081525090565b81526020019060019003908161098f5790505b50905060005b6001548110156110a5576000818152602081815260409182902082516101c0810190935280546001600160a01b0316835260018101805491939284929084019190610a6d90611d01565b80601f0160208091040260200160405190810160405280929190818152602001828054610a9990611d01565b8015610ae65780601f10610abb57610100808354040283529160200191610ae6565b820191906000526020600020905b815481529060010190602001808311610ac957829003601f168201915b50505050508152602001600282018054610aff90611d01565b80601f0160208091040260200160405190810160405280929190818152602001828054610b2b90611d01565b8015610b785780601f10610b4d57610100808354040283529160200191610b78565b820191906000526020600020905b815481529060010190602001808311610b5b57829003601f168201915b5050505050815260200160038201548152602001600482015481526020016005820154815260200160068201805480602002602001604051908101604052809291908181526020016000905b82821015610c70578382906000526020600020018054610be390611d01565b80601f0160208091040260200160405190810160405280929190818152602001828054610c0f90611d01565b8015610c5c5780601f10610c3157610100808354040283529160200191610c5c565b820191906000526020600020905b815481529060010190602001808311610c3f57829003601f168201915b505050505081526020019060010190610bc4565b505050508152602001600782018054610c8890611d01565b80601f0160208091040260200160405190810160405280929190818152602001828054610cb490611d01565b8015610d015780601f10610cd657610100808354040283529160200191610d01565b820191906000526020600020905b815481529060010190602001808311610ce457829003601f168201915b50505050508152602001600882018054610d1a90611d01565b80601f0160208091040260200160405190810160405280929190818152602001828054610d4690611d01565b8015610d935780601f10610d6857610100808354040283529160200191610d93565b820191906000526020600020905b815481529060010190602001808311610d7657829003601f168201915b50505050508152602001600982018054610dac90611d01565b80601f0160208091040260200160405190810160405280929190818152602001828054610dd890611d01565b8015610e255780601f10610dfa57610100808354040283529160200191610e25565b820191906000526020600020905b815481529060010190602001808311610e0857829003601f168201915b50505050508152602001600a8201805480602002602001604051908101604052809291908181526020018280548015610e8757602002820191906000526020600020905b81546001600160a01b03168152600190910190602001808311610e69575b50505050508152602001600b8201805480602002602001604051908101604052809291908181526020018280548015610edf57602002820191906000526020600020905b815481526020019060010190808311610ecb575b50505050508152602001600c82018054610ef890611d01565b80601f0160208091040260200160405190810160405280929190818152602001828054610f2490611d01565b8015610f715780601f10610f4657610100808354040283529160200191610f71565b820191906000526020600020905b815481529060010190602001808311610f5457829003601f168201915b50505050508152602001600d8201805480602002602001604051908101604052809291908181526020016000905b82821015611077578382906000526020600020906003020160405180606001604052908160008201548152602001600182018054610fdc90611d01565b80601f016020809104026020016040519081016040528092919081815260200182805461100890611d01565b80156110555780601f1061102a57610100808354040283529160200191611055565b820191906000526020600020905b81548152906001019060200180831161103857829003601f168201915b5050505050815260200160028201548152505081526020019060010190610f9f565b505050508152505083838151811061109157611091611d35565b602090810291909101015250600101610a23565b50919050565b600081815260208181526040808320600d01805482518185028101850190935280835260609492939192909184015b828210156111b257838290600052602060002090600302016040518060600160405290816000820154815260200160018201805461111790611d01565b80601f016020809104026020016040519081016040528092919081815260200182805461114390611d01565b80156111905780601f1061116557610100808354040283529160200191611190565b820191906000526020600020905b81548152906001019060200180831161117357829003601f168201915b50505050508152602001600282015481525050815260200190600101906110da565b505050509050919050565b600042871161121c5760405162461bcd60e51b815260206004820152602560248201527f54686520646561646c696e652073686f756c6420626520696e207468652066756044820152643a3ab9329760d91b60648201526084016106bd565b60018054600090815260208190526040902080546001600160a01b0319166001600160a01b038e161781559081016112548c82611dde565b50600281016112638b82611dde565b50600381018990556004810188905560006005820155865161128e90600683019060208a01906114a2565b506007810161129d8782611dde565b50600881016112ac8682611dde565b50600981016112bb8582611dde565b50600c81016112ca8482611dde565b50600180549060006112db83611d61565b9190505550600180546112ee9190611e9e565b9c9b505050505050505050505050565b600082815260208190526040902080546001600160a01b031633146113795760405162461bcd60e51b815260206004820152602b60248201527f4f6e6c79207468652063616d706169676e2063726561746f722063616e20646560448201526a3632ba32903a34b2b9399760a91b60648201526084016106bd565b600d81015482106113c25760405162461bcd60e51b815260206004820152601360248201527224b73b30b634b2103a34b2b91034b73232bc1760691b60448201526064016106bd565b815b600d8201546113d590600190611e9e565b81101561145757600d82016113eb826001611d7a565b815481106113fb576113fb611d35565b906000526020600020906003020182600d01828154811061141e5761141e611d35565b60009182526020909120825460039092020190815560018082019061144590840182611eb1565b506002918201549101556001016113c4565b5080600d0180548061146b5761146b611f84565b6000828152602081206003600019909301928302018181559061149160018301826114f8565b600282016000905550509055505050565b8280548282559060005260206000209081019282156114e8579160200282015b828111156114e857825182906114d89082611dde565b50916020019190600101906114c2565b506114f4929150611535565b5090565b50805461150490611d01565b6000825580601f10611514575050565b601f0160209004906000526020600020908101906115329190611552565b50565b808211156114f457600061154982826114f8565b50600101611535565b5b808211156114f45760008155600101611553565b60006020828403121561157957600080fd5b5035919050565b604080825283519082018190526000906020906060840190828701845b828110156115c25781516001600160a01b03168452928401929084019060010161159d565b5050508381038285015284518082528583019183019060005b818110156115f7578351835292840192918401916001016115db565b5090979650505050505050565b6000815180845260005b8181101561162a5760208185018101518683018201520161160e565b506000602082860101526020601f19601f83011685010191505092915050565b6001600160a01b038b1681526101406020820181905260009061166f8382018d611604565b90508281036040840152611683818c611604565b90508960608401528860808401528760a084015282810360c08401526116a98188611604565b905082810360e08401526116bd8187611604565b90508281036101008401526116d28186611604565b90508281036101208401526116e78185611604565b9d9c50505050505050505050505050565b6000806040838503121561170b57600080fd5b50508035926020909101359150565b634e487b7160e01b600052604160045260246000fd5b604051601f8201601f1916810167ffffffffffffffff811182821017156117595761175961171a565b604052919050565b600082601f83011261177257600080fd5b813567ffffffffffffffff81111561178c5761178c61171a565b61179f601f8201601f1916602001611730565b8181528460208386010111156117b457600080fd5b816020850160208301376000918101602001919091529392505050565b6000806000606084860312156117e657600080fd5b8335925060208401359150604084013567ffffffffffffffff81111561180b57600080fd5b61181786828701611761565b9150509250925092565b60008282518085526020808601955060208260051b8401016020860160005b848110156115f757601f1986840301895261185c838351611604565b98840198925090830190600101611840565b60008151808452602080850194506020840160005b838110156118a85781516001600160a01b031687529582019590820190600101611883565b509495945050505050565b60008151808452602080850194506020840160005b838110156118a8578151875295820195908201906001016118c8565b600082825180855260208086019550808260051b84010181860160005b848110156115f757601f19868403018952815160608151855285820151818787015261192f82870182611604565b60409384015196909301959095525098840198925090830190600101611901565b600060208083018184528085518083526040925060408601915060408160051b87010184880160005b83811015611add57888303603f19018552815180516001600160a01b031684526101c088820151818a8701526119b182870182611604565b91505087820151858203898701526119c98282611604565b606084810151908801526080808501519088015260a0808501519088015260c080850151888303828a01529193509150611a038382611821565b9250505060e08083015186830382880152611a1e8382611604565b925050506101008083015186830382880152611a3a8382611604565b925050506101208083015186830382880152611a568382611604565b925050506101408083015186830382880152611a72838261186e565b925050506101608083015186830382880152611a8e83826118b3565b925050506101808083015186830382880152611aaa8382611604565b925050506101a08083015192508582038187015250611ac981836118e4565b968901969450505090860190600101611979565b509098975050505050505050565b602081526000611afe60208301846118e4565b9392505050565b80356001600160a01b0381168114611b1c57600080fd5b919050565b600082601f830112611b3257600080fd5b8135602067ffffffffffffffff80831115611b4f57611b4f61171a565b8260051b611b5e838201611730565b9384528581018301938381019088861115611b7857600080fd5b84880192505b85831015611bb457823584811115611b965760008081fd5b611ba48a87838c0101611761565b8352509184019190840190611b7e565b98975050505050505050565b6000806000806000806000806000806101408b8d031215611be057600080fd5b611be98b611b05565b995060208b013567ffffffffffffffff80821115611c0657600080fd5b611c128e838f01611761565b9a5060408d0135915080821115611c2857600080fd5b611c348e838f01611761565b995060608d0135985060808d0135975060a08d0135915080821115611c5857600080fd5b611c648e838f01611b21565b965060c08d0135915080821115611c7a57600080fd5b611c868e838f01611761565b955060e08d0135915080821115611c9c57600080fd5b611ca88e838f01611761565b94506101008d0135915080821115611cbf57600080fd5b611ccb8e838f01611761565b93506101208d0135915080821115611ce257600080fd5b50611cef8d828e01611761565b9150509295989b9194979a5092959850565b600181811c90821680611d1557607f821691505b6020821081036110a557634e487b7160e01b600052602260045260246000fd5b634e487b7160e01b600052603260045260246000fd5b634e487b7160e01b600052601160045260246000fd5b600060018201611d7357611d73611d4b565b5060010190565b8082018082111561087157610871611d4b565b601f821115611dd9576000816000526020600020601f850160051c81016020861015611db65750805b601f850160051c820191505b81811015611dd557828155600101611dc2565b5050505b505050565b815167ffffffffffffffff811115611df857611df861171a565b611e0c81611e068454611d01565b84611d8d565b602080601f831160018114611e415760008415611e295750858301515b600019600386901b1c1916600185901b178555611dd5565b600085815260208120601f198616915b82811015611e7057888601518255948401946001909101908401611e51565b5085821015611e8e5787850151600019600388901b60f8161c191681555b5050505050600190811b01905550565b8181038181111561087157610871611d4b565b818103611ebc575050565b611ec68254611d01565b67ffffffffffffffff811115611ede57611ede61171a565b611eec81611e068454611d01565b6000601f821160018114611f205760008315611f085750848201545b600019600385901b1c1916600184901b178455610832565b600085815260209020601f19841690600086815260209020845b83811015611f5a5782860154825560019586019590910190602001611f3a565b5085831015611e8e5793015460001960f8600387901b161c19169092555050600190811b01905550565b634e487b7160e01b600052603160045260246000fdfea2646970667358221220e6e3b4c7546f241e9338be2a6dcd02245748b54a558370c73c150c30ca4bad5d64736f6c63430008170033",
    "linkReferences": {},
    "deployedLinkReferences": {}
}